:100000000C942A000C9434000C9434000C943400AA
:100010000C9434000C9434000C9434000C94340090
:100020000C9434000C9434000C9434000C94340080
:100030000C9434000C9434000C9434000C94340070
:100040000C9434000C9434000C9434000C94340060
:100050000C94340011241FBECFE5D8E0DEBFCDBF25
:100060000E9436000C9473000C9400008FEF90E017
:100070009BBB8ABB80E090E015C04BB35CB321E032
:1000800030E0082E02C0220F331F0A94E2F7242B1F
:10009000352B3CBB2BBBE7EAF1E63197F1F700C00B
:1000A000000001968830910544F328E030E018C044
:1000B0004BB35CB381E090E0022E02C0880F991F21
:1000C0000A94E2F780959095842395239CBB8BBB83
:1000D00087EA91E60197F1F700C00000215031094D
:0A00E000332334F7C7CFF894FFCFA5
:00000001FF
