S00C00006C6170322E73726563A9
S11300000C942A000C943F000C943F000C943F0085
S11300100C943F000C943F000C943F000C943F0060
S11300200C943F000C943F000C943F000C943F0050
S11300300C943F000C943F000C943F000C943F0040
S11300400C943F000C943F000C943F000C943F0030
S11300500C943F0011241FBECFE5D8E0DEBFCDBF16
S113006010E0A0E6B0E0E0E1F1E002C005900D92FE
S1130070A436B107D9F70E9441000C9486000C9471
S113008000008FEF90E09BBB8ABB8AB39BB38E7F4B
S11300909BBB8ABB8BB39CB381609CBB8BBB89B37A
S11300A09AB380FD2FC0809162008130C1F7109215
S11300B062002BB33CB381E090E00090600002C08A
S11300C0880F991F0A94E2F7822793279CBB8BBB66
S11300D08BE49DE10197F1F700C00000809160007E
S11300E090916100873091053CF081E090E090931D
S11300F0610080936000D3CF019690936100809358
S11301006000CDCF81E080936200C9CFF894FFCF27
S107011001000100E5
S9030000FC
