:100000000C94A7000C94C4000C94C4000C94C4007D
:100010000C94C4000C94C4000C94C4000C94C40050
:100020000C94C4000C94C4000C94C4000C94C40040
:100030000C94C4000C94C4000C94C4000C94C40030
:100040000C94C4000C94C4000C94C4000C94C40020
:100050000C94C40000407A10F35A00A0724E1809A4
:100060000010A5D4E80000E87648170000E40B541F
:10007000020000CA9A3B000000E1F50500008096EE
:100080009800000040420F000000A0860100000020
:10009000102700000000E8030000000064000000DA
:1000A00000000A00000000000100000000002C76A3
:1000B000D888DC674F0823DFC1DFAE59E1B1B796BE
:1000C000E5E3E453C63AE651997696E8E6C284261B
:1000D000EB898C9B62ED407C6FFCEFBC9C9F40F2F7
:1000E000BAA56FA5F490055A2AF75C936B6CF96773
:1000F0006DC11BFCE0E40D47FEF520E6B500D0ED38
:10010000902E0300943577050080841E080000209F
:100110004E0A000000C80C333333330F986E12833D
:100120001141EF8D2114893BE65516CFFEE6DB1811
:10013000D1844B381BF77C1D901DA4BBE4242032D6
:1001400084725E228100C9F124ECA1E53D271124CF
:100150001FBECFE5D8E0DEBFCDBF10E0A0E6B0E027
:10016000E8E4F2E102C005900D92A238B107D9F798
:1001700020E0A2E8B0E001C01D92A438B207E1F788
:100180000E94EC020C9422090C94000081B392B3FB
:10019000807F92BB81BB81B392B3806F92BB81BBE6
:1001A0008FEF90E093BB82BB089560E070E0A6C043
:1001B00042B353B3E1E6F0E081E090E0DC0100807F
:1001C00002C0AA0FBB1F0A94E2F79C01028002C082
:1001D000220F331F0A94E2F72A2B3B2BDC01048009
:1001E00002C0AA0FBB1F0A94E2F72A2B3B2BDC01AB
:1001F000068002C0AA0FBB1F0A94E2F72A2B3B2BF2
:10020000242B352B33BB22BB22B333B3FB01EE0FC0
:10021000FF1FEF59FF4F008002C0880F991F0A94FB
:10022000E2F7809590958223932393BB82BB80E075
:1002300090E05EC040B351B3FC01EE0FFF1FE759E1
:10024000FF4F21E030E0008002C0220F331F0A94EC
:10025000E2F724233523232B09F046C020916000C8
:10026000213009F044C01092600061307105C1F086
:1002700024F46115710541F03AC062307105E1F076
:100280006330710529F133C00097F1F18130910598
:10029000E9F182309105E1F18330910541F53AC0F1
:1002A0000097D1F181309105C9F182309105C1F1FA
:1002B00083309105E1F436C00097B1F181309105AA
:1002C000A9F182309105A1F18330910581F432C00A
:1002D000009791F18130910589F18230910581F18A
:1002E0008330910521F42EC021E020936000019617
:1002F000843091050CF49ECF6F5F7F4F64307105A1
:100300000CF456CF81E4089587E3089584E30895BB
:1003100081E308958FE3089588E3089585E30895C0
:1003200082E3089580E3089589E3089586E30895BC
:1003300083E308958DE308958FE208958AE2089596
:100340008DE208958BE208958BB39CB381609CBBD2
:100350008BBB87EE93E00197F1F700C000008BB3F1
:100360009CB38E7F9CBB8BBB0895CF93DF93C82F2C
:100370008BB39CB38B7F9CBB8BBB8BB39CB38D7FB0
:100380009CBB8BBB8BB39CB38F709CBB8BBB2BB3C9
:100390003CB38C2F82958F7040E1849FC001112463
:1003A000822B932B9CBB8BBB0E94A401809182006B
:1003B00090918300892B89F08BB39CB38F709CBB89
:1003C0008BBB8BB39CB320E1C29FE0011124C82BEF
:1003D000D92BDCBBCBBB0E94A4018FEC97E001972B
:1003E000F1F700C00000DF91CF91089510928300D3
:1003F000109282008FEF90E09BBB8ABB8FE19EE45E
:100400000197F1F700C0000080E20E94B50180E290
:100410000E94B50180E80E94B50187EE93E0019744
:10042000F1F700C0000080E00E94B50180EC0E945E
:10043000B50187EE93E00197F1F700C0000080E07E
:100440000E94B50180E10E94B5018FEC97E0019711
:10045000F1F700C0000081E090E09093830080936A
:1004600082000895CF93C82F8BB39CB384609CBB4C
:100470008BBB8BB39CB38D7F9CBB8BBB8BB39CB373
:100480008F709CBB8BBB2BB33CB38C2F82958F7032
:1004900040E1849FC0011124822B932B9CBB8BBB1A
:1004A0000E94A4018BB39CB38F709CBB8BBB2BB3FE
:1004B0003CB340E1C49FC0011124822B932B9CBB11
:1004C0008BBB0E94A40187EE93E00197F1F700C077
:1004D0000000CF910895CF93DF93EC018BB39CB3D1
:1004E00084609CBB8BBB8BB39CB38D7F9CBB8BBB55
:1004F00003C00E943202219688818111FACFDF91D8
:10050000CF910895CF93DF931F92CDB7DEB782309E
:1005100050F4603140F490E4899F600D11246983A8
:1005200089818068898389810E94B5010F90DF915C
:10053000CF91089581E00E94B50108950F931F9314
:10054000CF93DF93CDB7DEB764970FB6F894DEBFD5
:100550000FBECDBF242F8E010F5F1F4F40E00E94C2
:10056000E603C8010E946B0264960FB6F894DEBFE2
:100570000FBECDBFDF91CF911F910F9108950F93C3
:100580001F93CF93DF93CDB7DEB764970FB6F89480
:10059000DEBF0FBECDBF9F938F9381E790E09F9307
:1005A0008F938E010F5F1F4F1F930F930E940604BE
:1005B000C8010E946B020F900F900F900F900F9048
:1005C0000F9064960FB6F894DEBF0FBECDBFDF91DB
:1005D000CF911F910F9108950E94F6010E94C600CD
:1005E0000F2EC12CD12CF8E2EF2EF1E4FF2EF02DCE
:1005F000CAE0D0E087EE93E00197F1F700C0000079
:100600000E94D5000E94320284E790E00E946B02B3
:10061000CE010E94BF0260E081E00E94820244E0BD
:10062000C701B6010E949E028FE493EC0197F1F797
:1006300000C000000E949A02219720E030E040E0D4
:100640005FE3C701B6010E9428036B017C01D2CF92
:100650005058BB27AA270E9440030C94AC030E9469
:100660009E0338F00E94A50320F039F49F3F19F44F
:1006700026F40C949B030EF4E095E7FB0C94950391
:10068000E92F0E94BD0358F3BA1762077307840766
:10069000950720F079F4A6F50C94DF030EF4E095AD
:1006A0000B2EBA2FA02D0B01B90190010C01CA012C
:1006B000A0011124FF27591B99F0593F50F4503ED7
:1006C00068F11A16F040A22F232F342F4427585FC9
:1006D000F3CF469537952795A795F0405395C9F7E1
:1006E0007EF41F16BA0B620B730B840BBAF0915099
:1006F000A1F0FF0FBB1F661F771F881FC2F70EC038
:10070000BA0F621F731F841F48F48795779567950A
:10071000B795F7959E3F08F0B0CF9395880F08F0F6
:100720009927EE0F97958795089597F99F6780E829
:1007300070E060E008959FEF80EC089500240A9433
:100740001616170618060906089500240A941216AC
:100750001306140605060895092E0394000C11F4DF
:10076000882352F0BB0F40F4BF2B11F460FF04C08C
:100770006F5F7F4F8F4F9F4F089557FD9058440FE5
:10078000551F59F05F3F71F04795880F97FB991FF0
:1007900061F09F3F79F087950895121613061406AD
:1007A000551FF2CF4695F1DF08C01616170618063A
:1007B000991FF1CF86957105610508940895E89415
:1007C000BB2766277727CB0197F90895EF920F9300
:1007D0001F93CF93DF93E80147FD02C034E001C0CF
:1007E00034E1042E000C550B57FF03C05195419581
:1007F0005109E32E022F242FAE010E940906CE01DB
:10080000DF91CF911F910F91EF900895AEE0B0E08E
:10081000ECE0F4E00C94F9080D891E8986E08C83E5
:100820001A8309838FEF9FE79E838D83AE01475E16
:100830005F4F6F89788DCE0101960E942804EF8169
:10084000F885E00FF11F10822E96E4E00C94150954
:10085000ABE0B0E0EEE2F4E00C94EB086C017B015D
:100860008A01FC0117821682838181FFCCC1CE01EF
:1008700001963C01F6019381F70193FD859193FF69
:1008800081917F01882309F4BAC1853239F493FD3F
:10089000859193FF81917F01853229F4B60190E023
:1008A0000E945108E7CF912C212C312CFFE1F31548
:1008B000D8F08B3279F038F4803279F08332A1F4B9
:1008C000232D20611DC08D3261F0803369F4232D0A
:1008D000216016C0832D8260382EE32DE4603E2E09
:1008E0002AC0F32DF8601DC037FC2DC020ED280F65
:1008F0002A3040F08E32B9F436FC81C1232D2064B9
:10090000322E19C036FE06C08AE0989E200D1124B2
:10091000922E11C0EAE02E9E200D1124222EF32DDE
:10092000F0623F2E08C08C3621F4832D8068382E6B
:1009300002C0883641F4F70193FD859193FF8191C0
:100940007F018111B3CF982F9F7D9554933028F468
:100950000C5F1F4F9FE399830DC0833631F08337BF
:1009600071F0833509F059C021C0F8018081898375
:100970000E5F1F4F88248394912C530113C02801CC
:10098000F2E04F0E511CF801A080B18036FE03C08A
:10099000692D70E002C06FEF7FEFC5010E9446082D
:1009A0004C018201F32DFF773F2E16C0280122E073
:1009B000420E511CF801A080B18036FE03C0692DA3
:1009C00070E002C06FEF7FEFC5010E943B084C0151
:1009D000F32DF0683F2E820133FC1BC0822D90E086
:1009E00088169906B0F4B60180E290E00E945108A2
:1009F0002A94F4CFF50137FC859137FE81915F0190
:100A0000B60190E00E94510821102A9421E0821A38
:100A100091088114910471F7E8C0843611F0893689
:100A200041F5F80137FE07C06081718182819381B1
:100A30000C5F1F4F08C060817181072E000C880B6E
:100A4000990B0E5F1F4FF32DFF763F2E97FF09C0C6
:100A500090958095709561957F4F8F4F9F4FF0686F
:100A60003F2E2AE030E0A3010E948D08882E8618D0
:100A700045C0853731F4232D2F7EB22E2AE030E099
:100A800025C0932D997FB92E8F36C1F018F4883583
:100A900079F0B5C0803719F0883721F0B0C0E92F60
:100AA000E061BE2EB4FE0DC0FB2DF460BF2E09C068
:100AB00034FE0AC0292F2660B22E06C028E030E09E
:100AC00005C020E130E002C020E132E0F801B7FECD
:100AD00007C060817181828193810C5F1F4F06C0C6
:100AE0006081718180E090E00E5F1F4FA3010E9442
:100AF0008D08882E8618FB2DFF773F2E36FE0DC001
:100B0000232D2E7FA22E891458F434FE0BC032FC04
:100B100009C0832D8E7EA82E05C0B82CA32C03C03F
:100B2000B82C01C0B92CA4FE0FC0FE01E80DF11DC8
:100B30008081803321F49A2D997EA92E09C0A2FECE
:100B400006C0B394B39404C08A2D867809F0B39498
:100B5000A3FC11C0A0FE06C0B21488F4280C922C8D
:100B60009B180EC0B21460F4B60180E290E00E94BF
:100B70005108B394F7CFB21418F42B1802C0982C74
:100B8000212CA4FE10C0B60180E390E00E94510821
:100B9000A2FE17C0A1FC03C088E790E002C088E570
:100BA00090E0B6010CC08A2D867859F0A1FE02C0F3
:100BB0008BE201C080E2A7FC8DE2B60190E00E94CA
:100BC0005108891438F4B60180E390E00E9451087E
:100BD0009A94F7CF8A94F301E80DF11D8081B60154
:100BE00090E00E9451088110F5CF222009F442CEF6
:100BF000B60180E290E00E9451082A94F6CFF601F7
:100C00008681978102C08FEF9FEF2B96E2E10C94D3
:100C10000709A9E0B0E0EFE0F6E00C94F1086A0102
:100C2000122FB02E2BE3201720F0FF24F394F00EA8
:100C300002C02CE3F22E0F2D27E0AE014F5F5F4F75
:100C40000E946307BC014981842F8970813031F093
:100C5000E1FC06C0E0FE06C090E205C09DE203C0D4
:100C60009BE201C090E05E2D507143FF3CC09111AA
:100C700002C083E001C084E0811718F4212F281BF3
:100C800001C020E051110BC0F601822F30E2882311
:100C900019F031938150FBCFC20ED11C20E0992373
:100CA00029F0D6019C93F60131966F01C601039697
:100CB000E2FE0AC03EE4D6013C9341E411964C9317
:100CC000119712963C9306C03EE6F601308341E64A
:100CD00041833283FC01322F40E2332309F442C0C6
:100CE00041933150FACF42FF44C0911102C083E0DA
:100CF00001C084E0811718F4212F281B01C020E0D7
:100D000051110BC0F601822F30E2882319F0319384
:100D10008150FBCFC20ED11C20E0992329F0D601CF
:100D20009C93F60131966F01C6010396E2FE0BC05B
:100D300039E4D6013C933EE411963C93119736E496
:100D400012963C9307C039E6F60130833EE63183C4
:100D500036E63283FC01322F40E2332319F041930F
:100D60003150FBCFFC01E20FF11D10828EEF9FEF9F
:100D7000A6C021E030E0911102C020E030E016165C
:100D800017061CF4FB01319602C0E1E0F0E02E0FE3
:100D90003F1FBB2021F0EB2DF0E0319602C0E0E0D8
:100DA000F0E02E0F3F1FE12FF0E02E173F071CF45D
:100DB000121B212F01C020E08E2D887159F4F601FD
:100DC000822F30E2882319F031938150FBCFC20E7D
:100DD000D11C20E0992329F0D6019C93F60131968D
:100DE0006F0151110BC0F601822F90E3882319F097
:100DF00091938150FBCFC20ED11C20E00F2D060F26
:100E00009A81342F307144FF03C0913309F40150AB
:100E1000101624F4093018F008E001C001E0AB011D
:100E200077FF02C040E050E0FB01E41BF50BA1E0BE
:100E3000B0E0AC0FBD1FEA0FFB1F8EE2A82E4B01E6
:100E4000801A91080B2D10E01195019511094F3F63
:100E5000BFEF5B0721F4D601AC9211966D016417C8
:100E600075072CF08416950614F4818101C080E387
:100E7000415051093196D60111967D014017510715
:100E800024F0D6018C936701E2CF6417750739F41B
:100E9000963320F4953319F4311101C081E3F60142
:100EA0008083F701822F90E2882319F0919381507B
:100EB000FBCFF701E20FF11D108280E090E0299650
:100EC000ECE00C940D09283008F027E03327DA0114
:100ED000990F311D87FD916000966105710539F408
:100EE00032602E5F3D9330E32A95E1F708959F3FEE
:100EF00030F080387105610509F03C5F3C5F3D933F
:100F0000913008F08068911DDF93CF931F930F936A
:100F1000FF92EF92192F987F9695E92F96959695C7
:100F2000E90FFF27E255FF4F99273327EE24FF24CF
:100F3000A701E70105900894079428F4360FE71EEF
:100F4000F81E491F511D660F771F881F991F0694B1
:100F5000A1F70590079428F4E70EF81E491F561FC5
:100F6000C11D770F881F991F661F0694A1F7059072
:100F7000079428F4F80E491F561FC71FD11D880F6C
:100F8000991F661F771F0694A1F70590079420F418
:100F9000490F561FC71FD81F990F661F771F881F3D
:100FA0000694A9F784911095177041F0D695C795CE
:100FB00057954795F794E7941A95C1F7E4E5F0E063
:100FC00068941590159135916591959105907FE202
:100FD0007395E118F10A430B560BC90BD009C0F702
:100FE000E10CF11E431F561FC91FD01D7EF4703344
:100FF00011F48A95E6CFE894015030F0080F0AF416
:101000000027021708F4202F2395022F7A3328F0A7
:1010100079E37D932A95E9F710C07D932A9589F6A7
:10102000069497956795379517951794E118F10AE7
:10103000430B560BC90BD00998F023957E917395FD
:101040007A3308F070E37C932013B8F77E917061D7
:101050007D9330F0839571E37D9370E32A95E1F7FA
:101060001124EF90FF900F911F91CF91DF9199275D
:1010700087FD90950895FC01059061507040011026
:10108000D8F7809590958E0F9F1F0895FC016150B1
:10109000704001900110D8F7809590958E0F9F1F9A
:1010A00008950F931F93CF93DF93FB01238121FDBD
:1010B00003C08FEF9FEF2CC022FF16C046815781DF
:1010C000248135814217530744F4A081B1819D01E9
:1010D0002F5F3F4F318320838C93268137812F5F91
:1010E0003F4F3783268314C08B01EC01FB01008442
:1010F000F185E02D0995892BE1F6D80116968D91A1
:101100009C911797019617969C938E931697CE01F4
:10111000DF91CF911F910F910895FA01AA272830EE
:1011200051F1203181F1E8946F936E7F6E5F7F4FB4
:101130008F4F9F4FAF4FB1E03ED0B4E03CD0670F30
:10114000781F891F9A1FA11D680F791F8A1F911D83
:10115000A11D6A0F711D811D911DA11D20D009F4D3
:1011600068943F912AE0269F11243019305D319315
:10117000DEF6CF010895462F4770405D4193B3E0FE
:101180000FD0C9F7F6CF462F4F70405D4A3318F0A5
:10119000495D31FD4052419302D0A9F7EACFB4E056
:1011A000A6959795879577956795BA95C9F700970E
:1011B0006105710508959B01AC010A2E06945795AF
:1011C000479537952795BA95C9F7620F731F841F06
:1011D000951FA01D08952F923F924F925F926F929C
:1011E0007F928F929F92AF92BF92CF92DF92EF92B7
:1011F000FF920F931F93CF93DF93CDB7DEB7CA1B38
:10120000DB0B0FB6F894DEBF0FBECDBF09942A8862
:10121000398848885F846E847D848C849B84AA840A
:10122000B984C884DF80EE80FD800C811B81AA8197
:10123000B981CE0FD11D0FB6F894DEBF0FBECDBF62
:08124000ED010895F894FFCFC1
:101248000104000500060007000000010002000379
:1012580000256400206D6F616C7368726569662093
:02126800000084
:00000001FF
