S0100000377365676D656E742E73726563EA
S11300000C942A000C943F000C943F000C943F0085
S11300100C943F000C943F000C943F000C943F0060
S11300200C943F000C943F000C943F000C943F0050
S11300300C943F000C943F000C943F000C943F0040
S11300400C943F000C943F000C943F000C943F0030
S11300500C943F0011241FBECFE5D8E0DEBFCDBF16
S113006010E0A0E6B0E0EEE7F1E002C005900D92EA
S1130070AA36B107D9F70E9441000C94BD000C9434
S113008000008FEF90E09BBB8ABB87B398B381607D
S113009098BB87BB87B398B3826098BB87BB20E0CB
S11300A030E03EC0C9016AE070E00E94950048B3A8
S11300B059B34E7F59BB48BB48B359B3426059BB8F
S11300C048BBFC01E05AFF4F808190E09CBB8BBB96
S11300D083ED90E30197F1F700C00000611571050D
S11300E031F488B399B3826099BB88BB17C088B3D5
S11300F099B38D7F99BB88BB88B399B3816099BB51
S113010088BBFB01E05AFF4F808190E09CBB8BBB16
S113011083ED90E30197F1F700C000002F5F3F4F9C
S1130120243631050CF4BECFBACF97FB072E16F454
S1130130009407D077FD09D00E94A90007FC05D0E0
S11301403EF4909581959F4F0895709561957F4FEA
S11301500895AA1BBB1B51E107C0AA1FBB1FA6170A
S1130160B70710F0A61BB70B881F991F5A95A9F75C
S111017080959095BC01CD010895F894FFCFC1
S10D017E3F065B4F666D7D077F6F3F
S9030000FC
