:020000040800F2
:1000000000280020011500085115000851150008AE
:100010005115000851150008511500080000000096
:100020000000000000000000000000005115000862
:100030005115000800000000511500085115000876
:1000400051150008511500085115000851150008F8
:1000500051150008511500085115000851150008E8
:1000600051150008511500085115000851150008D8
:1000700051150008511500085115000851150008C8
:1000800051150008511500085115000851150008B8
:1000900051150008511500085115000851150008A8
:1000A0005115000851150008511500085115000898
:1000B0005115000851150008511500085115000888
:1000C0005115000851150008511500085115000878
:1000D0005115000851150008511500085115000868
:1000E00051150008511500080000000051150008C6
:1000F0005115000851150008511500085115000848
:100100005115000851150008511500085115000837
:100110005115000851150008511500085115000827
:100120005115000851150008511500085115000817
:1001300010B5054C237833B9044B13B10448AFF321
:1001400000800123237010BD840000200000000007
:100150005833000808B5034B1BB103490348AFF3FC
:10016000008008BD0000000088000020583300080F
:1001700081F0004102E000BF83F0004330B54FEA58
:1001800041044FEA430594EA050F08BF90EA020FC5
:100190001FBF54EA000C55EA020C7FEA645C7FEA58
:1001A000655C00F0E2804FEA5454D4EB5555B8BF7B
:1001B0006D420CDD2C4480EA020281EA030382EAEC
:1001C000000083EA010180EA020281EA0303362D7E
:1001D00088BF30BD11F0004F4FEA01314FF4801C51
:1001E0004CEA113102D0404261EB410113F0004F63
:1001F0004FEA03334CEA133302D0524263EB43031A
:1002000094EA050F00F0A780A4F10104D5F1200EB7
:100210000DDB02FA0EFC22FA05F2801841F1000112
:1002200003FA0EF2801843FA05F359410EE0A5F1E6
:1002300020050EF1200E012A03FA0EFC28BF4CF017
:10024000020C43FA05F3C01851EBE37101F00045CD
:1002500007D54FF0000EDCF1000C7EEB00006EEBDA
:100260000101B1F5801F1BD3B1F5001F0CD3490864
:100270005FEA30004FEA3C0C04F101044FEA4452BB
:1002800012F5800F80F09A80BCF1004F08BF5FEA42
:10029000500C50F1000041EB045141EA050130BD22
:1002A0005FEA4C0C404141EB010111F4801FA4F1C5
:1002B0000104E9D191F0000F04BF01460020B1FA1A
:1002C00081F308BF2033A3F10B03B3F120020CDA52
:1002D0000C3208DD02F1140CC2F10C0201FA0CF030
:1002E00021FA02F10CE002F11402D8BFC2F1200C95
:1002F00001FA02F120FA0CFCDCBF41EA0C0190404B
:10030000E41AA2BF01EB0451294330BD6FEA040493
:100310001F3C1CDA0C340EDC04F11404C4F120027E
:1003200020FA04F001FA02F340EA030021FA04F390
:1003300045EA030130BDC4F10C04C4F1200220FAE7
:1003400002F001FA04F340EA0300294630BD21FA25
:1003500004F0294630BD94F0000F83F4801306BFEB
:1003600081F480110134013D4EE77FEA645C18BFDF
:100370007FEA655C29D094EA050F08BF90EA020F76
:1003800005D054EA000C04BF1946104630BD91EA6E
:10039000030F1EBF0021002030BD5FEA545C05D171
:1003A0004000494128BF41F0004130BD14F58004B0
:1003B0003CBF01F5801130BD01F0004545F0FE4124
:1003C00041F470014FF0000030BD7FEA645C1ABF59
:1003D000194610467FEA655C1CBF0B46024650EA90
:1003E000013406BF52EA033591EA030F41F40021BC
:1003F00030BD00BF90F0000F04BF0021704730B542
:100400004FF4806404F132044FF000054FF0000116
:1004100050E700BF90F0000F04BF0021704730B5D7
:100420004FF4806404F1320410F0004548BF4042AC
:100430004FF000013EE700BF42004FEAE2014FEA01
:1004400031014FEA02701FBF12F07F4393F07F4FDC
:1004500081F06051704732F07F4208BF704793F0DF
:100460007F4F04BF41F40021704730B54FF46074F2
:1004700001F0004521F000411CE700BF50EA0102F5
:1004800008BF704730B54FF000050AE050EA01029E
:1004900008BF704730B511F0004502D5404261EB0E
:1004A00041014FF4806404F132045FEA915C3FF44F
:1004B000D8AE4FF003025FEADC0C18BF03325FEAEC
:1004C000DC0C18BF033202EBDC02C2F1200300FA9D
:1004D00003FC20FA02F001FA03FE40EA0E0021FAC2
:1004E00002F11444BDE600BF70B54FF0FF0C4CF4B0
:1004F000E06C1CEA11541DBF1CEA135594EA0C0F62
:1005000095EA0C0F00F0DEF82C4481EA030621EA9C
:100510004C5123EA4C5350EA013518BF52EA0335D7
:1005200041F4801143F4801338D0A0FB02CE4FF089
:100530000005E1FB02E506F00042E0FB03E54FF0B9
:100540000006E1FB03569CF0000F18BF4EF0010EB1
:10055000A4F1FF04B6F5007F64F5407404D25FEAAD
:100560004E0E6D4146EB060642EAC62141EA555160
:100570004FEAC52040EA5E504FEACE2EB4F1FD0CA2
:1005800088BFBCF5E06F1ED8BEF1004F08BF5FEA20
:10059000500E50F1000041EB045170BD06F00046D2
:1005A00046EA010140EA020081EA0301B4EB5C047F
:1005B000C2BFD4EB0C0541EA045170BD41F4801177
:1005C0004FF0000E013C00F3AB8014F1360FDEBF9C
:1005D000002001F0004170BDC4F10004203C35DA78
:1005E0000C341BDC04F11404C4F1200500FA05F3FB
:1005F00020FA04F001FA05F240EA020001F000429C
:1006000021F0004110EBD37021FA04F642EB060111
:100610005EEA430E08BF20EAD37070BDC4F10C043B
:10062000C4F1200500FA04F320FA05F001FA04F2FF
:1006300040EA020001F0004110EBD37041F10001EB
:100640005EEA430E08BF20EAD37070BDC4F12005F6
:1006500000FA05F24EEA020E20FA04F301FA05F25E
:1006600043EA020321FA04F001F0004121FA04F206
:1006700020EA020000EBD3705EEA430E08BF20EAD6
:10068000D37070BD94F0000F0FD101F00046400010
:1006900041EB010111F4801F08BF013CF7D041EA92
:1006A000060195F0000F18BF704703F00046520096
:1006B00043EB030313F4801F08BF013DF7D043EA67
:1006C0000603704794EA0C0F0CEA135518BF95EA1D
:1006D0000C0F0CD050EA410618BF52EA4306D1D1A4
:1006E00081EA030101F000414FF0000070BD50EAC3
:1006F000410606BF1046194652EA430619D094EA4D
:100700000C0F02D150EA013613D195EA0C0F05D136
:1007100052EA03361CBF104619460AD181EA03018A
:1007200001F0004141F0FE4141F470014FF0000042
:1007300070BD41F0FE4141F4780170BD70B54FF0DD
:10074000FF0C4CF4E06C1CEA11541DBF1CEA13555D
:1007500094EA0C0F95EA0C0F00F0A7F8A4EB05043F
:1007600081EA030E52EA03354FEA013100F0888036
:100770004FEA03334FF0805545EA131343EA1263FF
:100780004FEA022245EA111545EA10654FEA0026B4
:100790000EF000419D4208BF964244F1FD0404F56D
:1007A000407402D25B084FEA3202B61A65EB0305C9
:1007B0005B084FEA32024FF480104FF4002CB6EB86
:1007C000020E75EB030E22BFB61A754640EA0C0006
:1007D0005B084FEA3202B6EB020E75EB030E22BF46
:1007E000B61A754640EA5C005B084FEA3202B6EB87
:1007F000020E75EB030E22BFB61A754640EA9C0046
:100800005B084FEA3202B6EB020E75EB030E22BF15
:10081000B61A754640EADC0055EA060E18D04FEAD3
:10082000051545EA16754FEA06164FEAC30343EA73
:1008300052734FEAC2025FEA1C1CC0D111F4801F40
:100840000BD141EA00014FF000004FF0004CB6E739
:1008500011F4801F04BF01430020B4F1FD0C88BFD8
:10086000BCF5E06F3FF6AFAEB5EB030C04BFB6EBE3
:10087000020C5FEA500C50F1000041EB045170BDD6
:100880000EF0004E4EEA113114EB5C04C2BFD4EB03
:100890000C0541EA045170BD41F480114FF0000E87
:1008A000013C90E645EA060E8DE60CEA135594EA03
:1008B0000C0F08BF95EA0C0F3FF43BAF94EA0C0F06
:1008C0000AD150EA01347FF434AF95EA0C0F7FF47B
:1008D00025AF104619462CE795EA0C0F06D152EACF
:1008E00003353FF4FDAE1046194622E750EA4106B3
:1008F00018BF52EA43067FF4C5AE50EA41047FF4C4
:100900000DAF52EA43057FF4EBAE12E74FF0FF3C28
:1009100006E000BF4FF0010C02E000BF4FF0010CF9
:100920004DF804CD4FEA410C7FEA6C5C4FEA430C72
:1009300018BF7FEA6C5C1BD001B050EA410C0CBFC1
:1009400052EA430C91EA030F02BF90EA020F002023
:10095000704710F1000F91EA030F58BF994208BF8A
:1009600090422CBFD8176FEAE37040F00100704747
:100970004FEA410C7FEA6C5C02D150EA013C07D19E
:100980004FEA430C7FEA6C5CD6D152EA033CD3D0E9
:100990005DF8040B704700BF8446104662468C46E3
:1009A0001946634600E000BF01B5FFF7B7FF002816
:1009B00048BF10F1000F01BD4DF808EDFFF7F4FF3F
:1009C0000CBF012000205DF808FB00BF4DF808EDCA
:1009D000FFF7EAFF34BF012000205DF808FB00BFED
:1009E0004DF808EDFFF7E0FF94BF012000205DF80F
:1009F00008FB00BF4DF808EDFFF7CEFF94BF0120C4
:100A000000205DF808FB00BF4DF808EDFFF7C4FFBC
:100A100034BF012000205DF808FB00BF4FEA41020F
:100A200012F5001215D211D56FF47873B3EB625240
:100A300012D94FEAC12343F0004343EA505311F067
:100A4000004F23FA02F018BF404270474FF00000F9
:100A5000704750EA013005D111F0004008BF6FF037
:100A6000004070474FF00000704700BF80F000402A
:100A700002E000BF81F0004142001FBF5FEA410376
:100A800092EA030F7FEA226C7FEA236C6AD04FEA76
:100A90001262D2EB1363C1BFD218414048404140BB
:100AA000B8BF5B42192B88BF704710F0004F40F46D
:100AB000000020F07F4018BF404211F0004F41F489
:100AC000000121F07F4118BF494292EA030F3FD055
:100AD000A2F1010241FA03FC10EB0C00C3F1200368
:100AE00001FA03F100F0004302D5494260EB4000F7
:100AF000B0F5000F13D3B0F1807F06D340084FEA62
:100B0000310102F10102FE2A51D2B1F1004F40EB56
:100B1000C25008BF20F0010040EA030070474900BE
:100B200040EB000010F4000FA2F10102EDD1B0FA89
:100B300080FCACF1080CB2EB0C0200FA0CF0AABF7E
:100B400000EBC25052421843BCBFD040184370471C
:100B500092F0000F81F4000106BF80F40000013222
:100B6000013BB5E74FEA41037FEA226C18BF7FEAF9
:100B7000236C21D092EA030F04D092F0000F08BF3B
:100B80000846704790EA010F1CBF0020704712F022
:100B90007F4F04D1400028BF40F00040704712F161
:100BA00000723CBF00F50000704700F0004343F0C6
:100BB000FE4040F4000070477FEA226216BF0846FC
:100BC0007FEA23630146420206BF5FEA412390EABF
:100BD000010F40F4800070474FF0000304E000BFB5
:100BE00010F0004348BF40425FEA000C08BF704766
:100BF00043F0964301464FF000001CE050EA01022A
:100C000008BF70474FF000030AE000BF50EA01023E
:100C100008BF704711F0004302D5404261EB41012B
:100C20005FEA010C02BF84460146002043F0B64350
:100C300008BFA3F18053A3F50003BCFA8CF2083A75
:100C4000A3EBC25310DB01FA02FC634400FA02FC7E
:100C5000C2F12002BCF1004F20FA02F243EB020085
:100C600008BF20F00100704702F1200201FA02FCE7
:100C7000C2F1200250EA4C0021FA02F243EB0200DA
:100C800008BF20EADC70704780B485B000AF03462F
:100C9000FB80FB88002B01D10023FB73FB88012B19
:100CA00001D10423FB73FB88022B01D10823FB73C2
:100CB000FB88032B01D10C23FB73FB88042B01D190
:100CC0001023FB73FB88052B01D11423FB73FB88D6
:100CD000062B01D11823FB73FB88072B01D11C23A2
:100CE000FB73FB88082B01D10023FB73FB88092BC6
:100CF00001D10423FB73FB880A2B01D10823FB736A
:100D0000FB880B2B01D10C23FB73FB880C2B01D12F
:100D10001023FB73FB880D2B01D11423FB73FB887D
:100D20000E2B01D11823FB73FB880F2B01D11C2341
:100D3000FB73FB7B18461437BD4680BC704780B5FB
:100D400084B000AFF8600B467A607B817B89072B0B
:100D500056D87B891846FFF797FF03461A460F239C
:100D60009340DA43FB681B681A40FB681A607B6893
:100D7000082B02D07B68182B33D17B68182B17D136
:100D80007B891846FFF780FF03461A46082303FABB
:100D900002F2FB681B681A43FB681A60FB68DB6899
:100DA0007A89012101FA02F21A43FB68DA6081E0D4
:100DB0007B891846FFF768FF03461A46082303FAA3
:100DC00002F2FB681B681A43FB681A60FB68DB6869
:100DD0007A89012101FA02F2D2431A40FB68DA60F3
:100DE00068E07B891846FFF74FFF03461A467B6889
:100DF00003FA02F2FB681B681A43FB681A6059E0A9
:100E00007B89072B56D97B891846FFF73DFF0346A0
:100E10001A460F239340DA43FB685B681A40FB686D
:100E20005A607B68082B02D07B68182B33D17B6813
:100E3000182B17D17B891846FFF726FF03461A4661
:100E4000082303FA02F2FB685B681A43FB685A60E6
:100E5000FB68DB687A89012101FA02F21A43FB6818
:100E6000DA6027E07B891846FFF70EFF03461A4633
:100E7000082303FA02F2FB685B681A43FB685A60B6
:100E8000FB68DB687A89012101FA02F2D2431A4039
:100E9000FB68DA600EE07B891846FFF7F5FE034633
:100EA0001A467B6803FA02F2FB685B681A43FB6828
:100EB0005A60FFE700BF1037BD4680BD80B483B0E5
:100EC00000AF78600B467B8013467B707B78002BED
:100ED00009D07B68DB687A88012101FA02F21A43A3
:100EE0007B68DA6009E07B68DB687A88012101FAB7
:100EF00002F2D2431A407B68DA6000BF0C37BD466D
:100F000080BC704780B483B000AF78600B467B80B4
:100F100013463B807B68DB6879883A8801FA02F2E5
:100F20001A437B68DA6000BF0C37BD4680BC70474F
:100F300080B483B000AF78600B467B8013463B8063
:100F40007B68DB6879883A8801FA02F2D2431A405A
:100F50007B68DA6000BF0C37BD4680BC704780B448
:100F600083B000AF78600B467B807B689A687B8893
:100F700022FA03F3DBB203F00103DBB218460C37AD
:100F8000BD4680BC704780B485B000AF7860002358
:100F9000FB6002E0FB680133FB607A6813469B004C
:100FA0001344DB001A46FB689342F3DB00BF14379F
:100FB000BD4680BC7047000080B500AF0122002113
:100FC0000648FFF77BFF0120FFF7DDFF002200212D
:100FD0000248FFF773FF00BF80BD00BF000801405B
:100FE00080B582B000AF0346FB7100220121184892
:100FF000FFF764FF002202211548FFF75FFF04227C
:101000000F211348FFF794FFFB791B09DBB29BB25A
:10101000042219460E48FFF775FFFFF7CDFF0D4B71
:101020001B68002B0DD004220F210948FFF780FF19
:10103000FB799BB2042219460548FFF763FFFFF7CF
:10104000BBFF0220FFF79FFF00BF0837BD4680BDF2
:1010500000080140A000002080B500AF254B002211
:101060001A60012200212448FFF769FE01220221B3
:101070002148FFF764FE012201211F48FFF75FFEB0
:10108000012204211C48FFF75AFE012205211A48BB
:10109000FFF755FE012206211748FFF750FE0122F7
:1010A00007211548FFF74BFE1420FFF76CFF2020A7
:1010B000FFF796FF2020FFF793FF8020FFF790FFB8
:1010C0000120FFF760FF0020FFF78AFFC020FFF735
:1010D00087FF0120FFF757FF0020FFF781FF102057
:1010E000FFF77EFF0220FFF74EFF024B01221A603E
:1010F00000BF80BDA00000200008014080B582B084
:1011000000AF0346FB71002201211648FFF7D6FE0F
:10111000012202211348FFF7D1FE04220F211148BA
:10112000FFF706FFFB791B09DBB29BB204221946CD
:101130000C48FFF7E7FEFFF73FFF04220F210948A5
:10114000FFF7F6FEFB799BB2042219460548FFF72C
:10115000D9FEFFF731FF0120FFF715FF00BF083769
:10116000BD4680BD0008014080B582B000AF786008
:10117000002201210C48FFF7A1FE012202210A48AA
:10118000FFF79CFE07E07B681B781846FFF7B6FF69
:101190007B6801337B607B681B78002BF3D100BF39
:1011A0000837BD4680BD00BF0008014080B584B04F
:1011B00000AF03460A46FB711346BB71FB79012B56
:1011C0000FD8BB790F2B0CD8FB799B01DAB2BB7916
:1011D0001344DBB2FB73FB7BDBB263F07F03DBB258
:1011E000FB73FB7BDBB21846FFF7FAFE00BF10373C
:1011F000BD4680BD80B500AF0120FFF7F1FE00BF06
:1012000080BD80B588B000AF78600B46FB70786811
:10121000FFF712F9FA7807F10C0300F09BF907F1D8
:101220000C031846FFF7A0FF00BF2037BD4680BD66
:1012300080B588B000AF786007F10C037A68064982
:10124000184600F0DDF907F10C031846FFF78CFF94
:1012500000BF2037BD4680BD7033000880B500AFA9
:10126000022208211348FFF76AFD022209211148D2
:10127000FFF765FD02220A210E48FFF760FD0222FA
:101280000B210C48FFF75BFD02220C210948FFF7F8
:1012900056FD02220D210748FFF751FD02220E21C3
:1012A0000448FFF74CFD02220F210248FFF747FDDB
:1012B00000BF80BD0008014080B582B000AF0023B0
:1012C0007B608FE04C4B1B689BB21A460F214B484A
:1012D000FFF718FE484A7B6852F823309BB21A4643
:1012E00001214648FFF724FE00233B6074E0444A96
:1012F0003B6852F823309BB219464048FFF72FFE57
:101300000346002B65D17B68032B62D801A252F8FB
:1013100023F000BF251300084D13000875130008C3
:101320009D1300083B68002B01D137235FE03B6829
:10133000012B01D134235AE03B68022B01D1312328
:1013400055E03B68032B3DD13F2350E03B68002B29
:1013500001D138234BE03B68012B01D1352346E016
:101360003B68022B01D1322341E03B68032B2BD198
:1013700030233CE03B68002B01D1392337E03B6848
:10138000012B01D1362332E03B68022B01D13323FC
:101390002DE03B68032B19D13D2328E03B68002B4F
:1013A00001D12F2323E03B68012B01D12A231EE02A
:1013B0003B68022B01D12D2319E03B68032B07D199
:1013C0002B2314E000BF04E000BF02E000BF00E0F8
:1013D00000BF3B6801333B603B68032B87DD7B68C4
:1013E00001337B607B68032B7FF76CAF412318468A
:1013F0000837BD4680BD00BF100000200008014036
:101400000000002080B582B000AF1E4B9B691D4AD2
:1014100043F004039361FFF71FFEFFF71FFF1A4815
:10142000FFF7A2FE0A237B60184B3B606420FFF7A6
:10143000AAFDFFF741FF03461846FFF75FFE144879
:10144000FFF792FE7868FFF7F3FE00210120FFF717
:10145000ADFE06213868FFF7D4FE0B48FFF784FE87
:101460004FF47A70FFF78FFDFFF7C4FE7B68013BF6
:101470007B604FF07C513868FFF7FCFA03463B6015
:10148000D4E700BF00100240743300080000284178
:101490007833000880B586B000AF7860144A154BE9
:1014A000D31A7B617B693B61134B1B68002B02D114
:1014B000114B124A1A60104B1A687B6813443A6940
:1014C0009A4207D200F06AF802460C2313604FF0EC
:1014D000FF3309E0084B1B68FB60074B1A687B6809
:1014E0001344054A1360FB6818461837BD4680BD93
:1014F0000028002000040000A4000020B800002004
:101500000D488546AFF300800C480D490D4A002375
:1015100002E0D458C4500433C4188C42F9D30A4AA8
:101520000A4C002301E013600432A242FBD300F016
:101530003BF8FFF767FFFEE70028002000000020CF
:1015400084000020D034000884000020B400002073
:10155000FEE70000F0B51C4685B0002315460022CA
:1015600006460F46FFF732FA234618B12D22013DF9
:1015700003F8012B67220021CDE90053CDE90221B8
:10158000054932463B46086800F0CEF8002814BFF3
:101590002046002005B0F0BD20000020014B186857
:1015A000704700BF2000002070B500250C4E0D4C88
:1015B000A41BA410A54209D101F0CEFE00250A4EBD
:1015C0000A4CA41BA410A54205D170BD56F82530C5
:1015D00098470135EEE756F8253098470135F2E790
:1015E000C8340008C8340008C8340008CC340008E7
:1015F00003460244934200D1704703F8011BF9E708
:101600000EB46FF0004100B59CB01DAB0290069087
:10161000079104910848094953F8042B0591006883
:1016200002A9019300F02EFD0022029B1A701CB04B
:101630005DF804EB03B07047200000200802FFFFB4
:10164000F0B58BB00F4608A9109C049107A903912F
:1016500009A90291611C0191022100919DF8446049
:10166000129D01F035F842F20F7301460998984235
:1016700004D1384600F096FF0BB0F0BD0B783B70FC
:10168000002D42D1002C40D17B1C11F8012F0AB152
:10169000002C3EDC672E43D0472E43D01A4630271D
:1016A0001D19A91A002938DC002CA8BF1B19411EDE
:1016B000002909911A46B7BF2D212B21C0F1010045
:1016C0000990099802F8026BB4BF597059706328E9
:1016D0000BDD642190FBF1F101F13004DA1C9C7008
:1016E0006FF0630303FB010109910A23099991FB40
:1016F000F3F303F1300010706FF0090000FB0313E7
:101700003033537000239370B6E72E22BB1C7A70DF
:10171000BBE703F8012B013CB7E702F8017BC0E708
:101720006526C4E74526C2E72DE9F04317461D4666
:101730008BB08146DDE91264002200233846294639
:10174000DDF85480FFF742F908B105F100450022A9
:10175000002338462946FFF72FF938B1302323708C
:101760000023637020460BB0BDE8F08352A3D3E999
:10177000002338462946FFF733F968B19DF8503009
:10178000013E0193CDF8088000963A462B4621464B
:101790004846FFF755FFE5E7304600F06FFB3A4655
:1017A0002B46FFF71DF90028E8D10022444B2946BB
:1017B0003846FFF70BF909A908AA07ABCDE90321C1
:1017C000CDE9016388B3032300933A462B4648468C
:1017D00000F07EFF42F20F73079A9A4227D0234609
:1017E0002644074610F8011BF21A079D49B3002D45
:1017F00022DCB8F1000F02D13978002949D09C428F
:1018000004BF302121704FF02E014FF000004FF047
:10181000300608BF631C19700799013300290D4673
:1018200024DB00B10791791E2BE00223CCE70146AF
:10183000204600F0B7FE95E7013D03F8011B079530
:10184000CFE7AD1A302605E0002A06DD012103F8B6
:10185000016B013AA8180028F6DC0029C9D00790CE
:10186000C7E703F8016B013A0120D7E7002A01F12D
:101870000101F6DC0028D6D00795D4E703F8010B68
:10188000013A11F8010F08B1002AF7DCB8F1000F96
:101890000BD100221A7065E701F8016B681A002865
:1018A000FADC002AA8BF9B18F3E719469D183026DA
:1018B000F4E700BFAFF300802D431CEBE2361A3F84
:1018C0000000F03F70B5456A04460E463DB9102051
:1018D00001F0B2FC6062C0E901550560C560656A4F
:1018E000EB6883B1636ADB6853F82600B8B901215D
:1018F00001FA06F56A1D9200204600F0DBFA60B19D
:10190000C0E901650EE021220421204600F0D2FA50
:10191000636AE860DB68002BE4D1002070BD0268D8
:1019200043F826200023C0E90333F7E770B5446A83
:1019300006460D463CB9102001F07EFC7062C0E9FD
:1019400001440460C4603DB1736A6A68DB6853F89F
:101950002210296043F8225070BD2DE9F0411F4646
:1019600006460C4600230D6901F1140CDCF800005A
:10197000013381B202FB0171000C0F0C02FB0070FD
:1019800089B201EB00419D424FEA10474CF8041B1D
:10199000ECDCD7B1A368AB4212DC616830460131A0
:1019A000FFF790FF8046226904F10C010232920099
:1019B0000C3001F057FC21463046FFF7B7FF444694
:1019C00004EB850301355F6125612046BDE8F081A8
:1019D000020C12040346B2B90304102013F07F4F27
:1019E00004BF1B02083013F0704F04BF1B0104300A
:1019F00013F0404F04BF9B000230002B06DB5B005E
:101A000003D5013070470020E8E7202070470368C5
:101A1000014613F007020BD0DA0723D4980749BF19
:101A20005B089B0801200B605CBF0B6002207047C5
:101A300098B2A8B910201B0C13F0FF0F04BF1B0AAB
:101A400008301A0704BF1B0904309A0704BF9B081B
:101A50000230DA0702D45B0806D001300B60704711
:101A60001046E9E7002070472020704710B50C466B
:101A70000121FFF727FF01224461026110BD2DE91A
:101A8000F74F14460A69236988469A42BEBF0B463F
:101A9000A0461C46D8F81070D4F81090D8F808303A
:101AA000D8F8041007EB0906B342B8BF0131FFF7BD
:101AB00009FF00F114052B46002205EB860E734545
:101AC00016D304F1140208F1140102EB890301EBAF
:101AD00087070093009B019293420CD8002E03DDF0
:101AE0005EF8043D002B5DD0066103B0BDE8F08FC9
:101AF00043F8042BE3E7B2F800B0BBF1000F23D0AA
:101B00008946AC464FF0000859F8044BDCF800A0B9
:101B1000A3B21FFA8AFA0BFB03A34FEA144ADCF8BC
:101B2000004043444FEA14480BFB0A84E24604EBAE
:101B300013449BB243EA04434F454FEA14484AF822
:101B4000043B2BD8CCF80480019B0432B3F802A0EC
:101B5000BAF1000F20D08946A8464FF0000B2B6841
:101B6000B9F800C0B8F802409BB20AFB0C44C44666
:101B70005C4443EA04434CF8043B59F8043BB8F88E
:101B800004B01B0C0AFB03B34F4503EB14434FEAAD
:101B9000134B05D8C8F8043004359BE7D446B3E7A7
:101BA000E046DDE7013E99E72DE9F843154612F0DE
:101BB000030206460F4607D0214C013A002354F891
:101BC0002220FFF7CAFE0746AD1035D0746A3CB933
:101BD000102001F031FB7062C0E901440460C46070
:101BE000D6F82480D8F808404CB940F2712130462C
:101BF000FFF73CFF00230446C8F8080003604FF0DD
:101C00000008EB070AD5394622463046FFF737FF72
:101C1000814639463046FFF789FE4F466D100BD09E
:101C2000206838B9224621463046FFF728FF206059
:101C3000C0F800800446E4E73846BDE8F88300BFFA
:101C4000783400082DE9F0470C460746164623690C
:101C50004FEA621A0AEB03094968A36809F1010512
:101C6000AB4232DB3846FFF72DFE002380461A4692
:101C700000F1140153452BDB20692AEAEA7A04F1CA
:101C8000140316F01F0201EB8A0103EB800C25D030
:101C90000020C2F1200E8A461E68964030434AF862
:101CA000040B53F8040B9C4520FA0EF014D848603E
:101CB00008B109F10205013D3846C8F81050214627
:101CC000FFF734FE4046BDE8F08701315B00C7E70F
:101CD00041F823200133CDE75146DCE7043953F8BE
:101CE000042B9C4541F8042FF9D8E4E703690A69FD
:101CF00030B59B1A0CD19200143014318418114461
:101D000054F8045D51F8042D954203D005D3012306
:101D1000184630BDA042F3D3FAE74FF0FF33F7E7A0
:101D20002DE9F0470D460746114628461446FFF7B1
:101D3000DDFF061E08D131463846FFF7C3FD0123FB
:101D4000C0E90436BDE8F087A4BF23462C463846D8
:101D50006168A6BF1D4600260126FFF7B3FD4FF0C0
:101D6000000EC6602B69266904F1140205F11409FE
:101D700002EB860709EB830800F1140152F804AB6B
:101D800059F8045B1FFA8AF37344ACB21B1B2C0C8A
:101D9000C4EB1A4404EB23449BB24FEA244EC845DB
:101DA00043EA0444944641F8044BE7D8BC4504D3C5
:101DB00051F8043D83B10661C4E75CF8044BA2B25C
:101DC0007244131403EB144392B242EA03424FEA03
:101DD000234E41F8042BE9E7013EE9E72DE9F34101
:101DE0001C46DDE9086501219046FFF76BFDC4F351
:101DF0001302C4F30A54074634BB0192B8F100023F
:101E000027D002A840F8082DFFF701FE0099F0B195
:101E1000019AC0F1200302FA03F30B43C2407B6135
:101E20000192019B002B14BF02210121BB6139618A
:101E3000C4B1A4F2334404443460C0F135002860D6
:101E4000384602B0BDE8F08142F48012D5E77961EE
:101E5000E7E701A8FFF7DBFD0121019B39617B6109
:101E60002030E5E7A0F2324007EB810330601869CB
:101E7000FFF7AEFDC0EB4110E1E700001728D0B539
:101E8000044605DC084B03EBC004D4E90001D0BDD7
:101E9000002000260549064F32463B46FEF724FB4C
:101EA000013CF9D1F3E700BFB03300080000F03F78
:101EB0000000244038B502FB01F4214600F008F888
:101EC000054618B122460021FFF792FB284638BD8F
:101ED00070B5CD1C25F0030508350C2D38BF0C2539
:101EE000002D064601DBA94203D90C2333600020F4
:101EF00070BD01F0DBF9214A1468214691B9204CEC
:101F000023681BB9304600F03DFB2060294630466F
:101F100000F038FB431C24D10C233046336001F021
:101F2000C6F9E4E70B685B1B18D40B2B0FD90B60C9
:101F3000CC18CD50304601F0BAF904F10B00231D46
:101F400020F00700C31AD3D05A42E250D0E74B68C2
:101F50008C4216BF636013600C46EBE70C46496881
:101F6000CCE7C41C24F00304A04205D0211A30465B
:101F700000F008FB0130CFD02560DBE7A80000208F
:101F8000AC000020F8B5074614460E4621B9BDE85E
:101F9000F8401146FFF79CBF22B901F089F92546A8
:101FA0002846F8BD01F0D0F9A0420FD221463846AC
:101FB000FFF78EFF05460028F2D03146224601F099
:101FC00051F93146384601F073F9E9E73546E7E75C
:101FD0002DE9F0478E6882469E420C46904699460F
:101FE00037D88A8912F4906F31D0022325680969A5
:101FF0006F1A656905EB450595FBF3F509F10103DA
:102000003B449D4238BF1D46530530D52946FFF756
:102010005FFF064650B90C234FF0FF30CAF800307E
:10202000A38943F04003A381BDE8F0873A462169C4
:1020300001F018F9A38923F4906343F08003A3818E
:1020400026613E4426604E466561ED1BA5604E4507
:1020500000D94E4632464146206801F00EF9A36889
:1020600000209B1BA36023681E442660DCE72A46F1
:10207000FFF788FF06460028E2D12169504601F0AB
:1020800017F9C8E72DE9F04F1D468B899DB01F0653
:1020900080460C4616460FD50B696BB94021FFF7F9
:1020A00017FF2060206128B90C23C8F800304FF0DA
:1020B000FF30C8E0402363610023099320238DF89B
:1020C000293030234FF0010B8DF82A300395374625
:1020D0003D4615F8013B0BB1252B3ED1B7EB060A67
:1020E0000BD05346324621464046FFF771FF013080
:1020F00000F0A480099B534409933B78002B00F027
:102100009D8000234FF0FF32CDE905230493079310
:102110008DF853301A932F46052217F8011B5048AB
:1021200001F092F8049BD0B9D90644BF20228DF863
:1021300053201A0744BF2B228DF853202A782A2ACD
:1021400015D02F4600200A25079A394611F8013B81
:10215000303B092B4DD9B8B10FE02F46B8E7404AC4
:102160003D46801A0BFA00F018430490D3E7039A17
:10217000111D12680391002A01DB079204E052420C
:1021800043F00203079204933B782E2B0CD17B780B
:102190002A2B33D1039B02371A1D1B680392002B95
:1021A000B8BF4FF0FF3305932E4D032239782846F0
:1021B00001F04AF838B14023401B03FA00F0049BB9
:1021C0000137034304933978062227487E1C8DF893
:1021D000281001F039F8002838D0244B13BB039B9A
:1021E000073323F0070308330393099B4B440993F8
:1021F0006DE705FB023201200F46A6E700230A2502
:10220000194601370593384610F8012B303A092A50
:1022100003D9002BC8D00591C6E705FB0121012396
:102220000746F0E703AB00932246114B04A9404652
:10223000AFF30080B0F1FF3F8146D6D1A3895B06A2
:102240003FF535AF09981DB0BDE8F08F03AB0093A3
:102250002246074B04A9404600F082F8EAE700BF97
:10226000843400088A3400088E340008000000001E
:10227000D11F00082DE9F04791461F468A680B6977
:1022800006469342B8BF1346C9F8003091F8432080
:102290000C46DDF8208012B10133C9F80030236804
:1022A000990642BFD9F800300233C9F800302568DA
:1022B00015F0060507D104F1190AE368D9F80020E2
:1022C0009B1AAB4229DC94F843302268003318BFD4
:1022D000012392062ED404F1430239463046C0470A
:1022E000013021D02368E56803F00603042B18BFF2
:1022F0000025D9F800204FF0000908BFAD1AA368E7
:10230000226908BF25EAE5759342C4BF9B1AED1800
:102310001A344D451AD1002008E0012352463946AF
:102320003046C047013003D14FF0FF30BDE8F087A1
:102330000135C2E73020E11881F843005A1C94F8B7
:1023400045102244023382F84310C4E70123224699
:1023500039463046C0470130E6D009F10109D8E7D7
:102360002DE9F04301F1430C0C46097E85B06E293E
:102370001746064698460C9A00F0B38022D8632987
:1023800036D00AD8002900F0B980582900F083809F
:1023900004F1420584F8421032E0642901D0692931
:1023A000F6D120681368050603F104012AD51B68DD
:1023B0001160002B03DA2D225B4284F843206F4822
:1023C0000A2239E0732900F09D8008D86F2920D0B7
:1023D0007029DDD1236843F02003236003E07529D1
:1023E00017D07829D4D17823654884F8453055E052
:1023F000136804F14205191D1B68116084F842300E
:1024000001238CE01B6810F0400F116018BF1BB255
:10241000CFE713682568181D1060280601D51B68D2
:1024200002E06806FBD51B886F2914BF0A22082228
:102430005248002184F843106568002DA560C0F261
:102440009580216821F004012160002B3DD1002DF1
:1024500040F08E806546082A0BD12368DB0708D53B
:10246000236962689A42DEBF302305F8013C05F11A
:10247000FF35ACEB05032361CDF800803B4603AA92
:1024800021463046FFF7F6FE01304DD14FF0FF30C8
:1024900005B0BDE8F083394884F845101368216819
:1024A0001D1D1B6815600A060BD5CA0744BF41F005
:1024B000200121601BB9226822F020022260102234
:1024C000B7E74D0648BF9BB2EFE76546B3FBF2F1B5
:1024D00002FB1133C35C05F8013D0B460029F5D121
:1024E000B9E713682568181D6169106028061B6824
:1024F00001D5196002E06A06FBD519800023654604
:102500002361B9E71368191D11601D686268002115
:10251000284600F099FE08B1401B606063682361A3
:10252000002384F84330A7E723692A46394630461A
:10253000C0470130AAD023689B0713D4E068039BEF
:102540009842B8BF1846A3E701234A4639463046A9
:10255000C04701309AD00135E368039A9B1AAB4219
:10256000F2DCEBE7002504F11909F5E7002BACD10B
:10257000037804F1420584F842306CE79534000892
:10258000A634000838B50023054C054608462360EC
:10259000FEF780FF431C02D1236803B12B6038BDD6
:1025A000B0000020034611F8012B03F8012B002A8C
:1025B000F9D170472DE9F74F03690C698046A342B2
:1025C000C0F28480013C01F1140700F1140657F8B1
:1025D000245056F824000135B0FBF5F54FEA840C81
:1025E00006EB0C0307EB0C0901939DB34FF0000AB7
:1025F0003846B646D34650F8042B93B205FB03A3E6
:10260000120C4FEA134A05FB02A29BB2ABEB030389
:10261000DEF800B04FEA124A1FFA8BFB5B441FFA48
:1026200082FBDEF800208145CBEB124202EB234215
:102630009BB243EA02434FEA224B4EF8043BDAD204
:1026400056F80C3033B9019B043B9E421A4631D3F5
:10265000C8F810404046FFF749FB002826DB30460B
:102660004FF0000C013557F8041BD0F800E08BB296
:10267000ACEB03031FFA8EF213440A0CC2EB1E42AA
:1026800002EB23429BB243EA0243B9454FEA224C94
:1026900040F8043BE7D256F8242006EB84032AB91D
:1026A000043B9E421A460BD3C8F81040284603B09C
:1026B000BDE8F08F1268043B002AC9D1013CC4E791
:1026C0001268043B002AEFD1013CEAE70020EEE764
:1026D0002DE9F04F16461F46456A95B00446DDF8D1
:1026E0008480CDE902673DB9102000F0A5FD60624D
:1026F000C0E901550560C560636A196851B15A683F
:10270000012393404A608B602046FFF70FF90022B7
:10271000636A1A603B1EAFBF0023012223F000430F
:102720000393ACBFC8F80030C8F80020AE4BDDF80A
:102730000C8033EA08031BD142F20F73209A136016
:10274000029B23B9C8F31300002800F04585229BA3
:1027500053B9A64B21E0A64B06930833229A136087
:10276000069815B0BDE8F08FA04B06930333F5E74C
:10277000DDE902670022002330463946FEF71CF9E6
:10278000824660B10123209A1360229B002B00F047
:102790002085984B229A1360013B0693E0E712AB29
:1027A000019313AB009332463B462046FFF716FBDE
:1027B000C8F30A558346002D7DD0B046C7F31303F6
:1027C00043F07F5949F44019A5F2FF35CDF840A0F8
:1027D0000022894B40464946FDF7CEFC7CA3D3E955
:1027E0000023FDF781FE7CA3D3E90023FDF7C6FC9F
:1027F000064628460F46FDF70DFE79A3D3E90023D0
:10280000FDF772FE02460B4630463946FDF7B6FC30
:1028100006460F46FEF702F90022824600233046A4
:102820003946FEF7D3F848B15046FDF7F3FD32467E
:102830003B46FEF7C1F808B90AF1FF3ABAF1160FA4
:102840005AD8DDE902236D4901EBCA01D1E9000143
:10285000FEF7DAF8002851D000230AF1FF3A0D9371
:10286000129B5D1B6B1E079343BF0023C5F101093B
:1028700007934FF00009BAF1000F41DB079BCDF839
:1028800030A053440793002308931E9B092B00F2AA
:102890008F80052BC4BF043B1E931E9BC8BF002521
:1028A000A3F10203D8BF0125032B00F28D80DFE8DE
:1028B00003F07B7D2F6FDDE912531D4405F232409A
:1028C000202813DDC0F14000029B08FA00F805F251
:1028D000124023FA00F048EA0000FDF78BFD0123C7
:1028E0008046A1F1F879013D109371E7029BC0F198
:1028F000200003FA00F0F0E70123B0E70D90AFE706
:10290000CAF1000308930023A9EB0A090C93BCE762
:10291000012309931F9B002B74DD9846049300222A
:10292000666A7260042202F11400984271686ED9DE
:102930002046FEF7C7FF636A30601B68B8F10E0FD0
:10294000069300F2ED80002D00F0EA80DDE902231D
:10295000BAF1000FCDE90E2377DD284A0AF00F0304
:102960004FEA2A1602EBC303F006D3E90023CDE9B0
:102970000A2368D5DDE90E01214B0325D3E908239D
:10298000FDF7DCFECDE9020106F00F061C4F4FE01B
:10299000012309931F9B534403F101080493434609
:1029A000012BB8BF0123BAE70023B2E70023F0E709
:1029B0000125002309951E934FF0FF330022049355
:1029C000984612231F92AAE701230993F4E700BF58
:1029D00061436F63A787D23FB3C8608B288AC63F25
:1029E000FB799F501344D33F0000F07FC0340008B0
:1029F000B7340008C53400080000F83FB0330008C1
:102A0000883300080123049398461A46DAE7013117
:102A10007160520087E7F10708D5DDE90A01D7E9BF
:102A20000023FDF761FDCDE90A0101357610083775
:102A3000002EF0D1DDE90A23DDE90201FDF77EFE7B
:102A4000CDE902011BE00225A0E700F0A480DDE94A
:102A50000E01CAF10006A04B06F00F0203EBC20301
:102A6000D3E90023FDF740FD02250023CDE9020153
:102A70009A4F3611002E40F08380002BE0D10D9B41
:102A8000002B00F08A80DDE90223CDE90A23DDE98D
:102A90000A010022924BFDF799FF00287DD0B8F182
:102AA000000F7AD0049B002B36DDDDE90A010022FD
:102AB0008C4BFDF719FDCDE90201049E0AF1FF37A9
:102AC00001352846FDF7A6FCDDE90223FDF70CFDE4
:102AD0000022854BFDF752FBA1F15075CDE90A01AB
:102AE0000B95002E5CD1DDE9020100227F4BFDF742
:102AF00043FB0A9A2B46CDE90201FDF785FF00282A
:102B000040F08182DDE902010A9A05F10043FDF7F8
:102B10005DFF002840F07582DDE90E23CDE9022338
:102B2000139B002BC0F24B81BAF10E0F00F34781CB
:102B3000694B03EBCA03D3E90023CDE904231F9BB0
:102B4000002B80F2D780B8F1000F00F3D38040F063
:102B50005782DDE904010022644BFDF7C5FCDDE985
:102B60000223FDF747FF46464746002840F02D82E6
:102B7000069B069A5D1C31230AF1010A137028E2B4
:102B8000F20705D5D7E90023FDF7AEFC0123013597
:102B9000761008376EE7022571E75746464690E7FC
:102BA0004D4B03EBC60353E90201099B002B48D0B0
:102BB00002460B4600204E49FDF7C0FDDDE90A2321
:102BC000FDF7DAFACDE90A01069DDDE90201FDF71C
:102BD00025FF1190FDF71EFC02460B46DDE90201C0
:102BE000FDF7CAFA119BCDE90201303305F8013B2C
:102BF000DDE90A23FDF7EAFE002863D1DDE90223BF
:102C000000203749FDF7B8FADDE90A23FDF7DEFEBB
:102C1000002840F0B580069BEB1A9E427FF77CAF00
:102C2000DDE90A0100222F4BFDF75EFC0022CDE911
:102C30000A01DDE902012B4BFDF756FCCDE902014B
:102C4000C3E7DDE90A23FDF74FFC069BCDE90A0146
:102C50009D191E46DDE90201FDF7E0FE1190FDF72A
:102C6000D9FB02460B46DDE90201FDF785FA119B0F
:102C7000CDE90201303306F8013BAE424FF00002CD
:102C800024D1DDE90A011A4BFDF778FA02460B461A
:102C9000DDE90201FDF7B8FE002871D1DDE90A2364
:102CA00000201349FDF768FA02460B46DDE90201F0
:102CB000FDF78CFE00283FF42FAF15F8013C6A1E8B
:102CC000302B01D0BA464AE01546F6E7054BFDF732
:102CD0000BFCCDE90201BDE7B033000888330008E2
:102CE0000000F03F0000244000001C4000001440A1
:102CF0000000E03F069DDDE90267DDE90423304680
:102D00003946FDF71BFDFDF789FE8146FDF782FB85
:102D1000DDE90423FDF7E8FB02460B463046394661
:102D2000FDF72AFA09F1300605F8016B069E024606
:102D3000AE1BB0450B4635D1FDF720FADDE9042383
:102D400006460F46FDF760FEC8B9DDE904233046AC
:102D50003946FDF731FE10B119F0010F0FD1594678
:102D60002046FEF7E3FD0023209A2B700AF10103B1
:102D70001360229B002B3FF4F3AC1D60F0E4574638
:102D800015F8012C6B1E392A06D1069A9A4207D1F2
:102D900030231370134601371A7801321A7091E705
:102DA0001D46EDE70022994BFDF79EFB0022002314
:102DB00006460F46FDF700FE00289ED0CFE7099A91
:102DC000002A00F088801E9A012A6DDC109A002AE1
:102DD00066D003F233434D46089E079A01211A44F8
:102DE000204699440792FEF741FE0746002D0BDD71
:102DF000079B002B08DDAB42A8BF2B46079AA9EB27
:102E00000309ED1AD31A0793089BEBB1099B002B1A
:102E100065D08EB1394632462046FEF7C5FE5A4689
:102E2000014607462046FEF72AFE59460A902046EC
:102E3000FEF77CFD0A9B9B46089B9A1B04D05946D3
:102E40002046FEF7B1FE834601212046FEF70EFE26
:102E50000C9B0646002B00F0C6811A460146204610
:102E6000FEF7A2FE1E9B0646012B3EDC029B002BBA
:102E700037D1039BC3F31303002B34D1039B23F0FF
:102E800000431B0D1B052BB1079B09F10109013301
:102E90000793012308930C9B002B28D101202EE0DF
:102EA000129BC3F1360396E7089B08F1FF36B34245
:102EB000B7BF089B9E1BF21A0C9BBFBF08969B18BE
:102EC0000C930026B8F1000FB9BFA9EB0805002349
:102ED0004D46434681E7089E4D46099F86E7089A7E
:102EE000ADE70023D6E7029BD4E7002308933369BC
:102EF00006EB83031869FEF76BFDC0F12000079B0A
:102F0000184410F01F0047D0C0F12003042B3BDD14
:102F1000079BC0F11C008144054403440793B9F1A9
:102F2000000F05DD59464A462046FEF78BFE8346D4
:102F3000079B002B05DD31461A462046FEF782FE30
:102F400006460D9B53B331465846FEF7CFFE002888
:102F500024DA002359460A222046FEF7FEFC099B8C
:102F60000AF1FF3A8346002B00F0448100233946E2
:102F70000A222046FEF7F1FC049B0746002B4DDC9D
:102F80001E9B022B4ADD11E0C9D0079A1C331A445C
:102F900099441D441346C1E70346F6E7B8F1000F14
:102FA00036DC1E9B022B33DDCDF81080049B63B909
:102FB000314605222046FEF7D0FC0146064658461B
:102FC000FEF794FE00283FF7D3AD1F9B069D6FEAE6
:102FD000030A4FF0000931462046FEF7A7FC002FF8
:102FE0003FF4BDAEB9F1000F05D0B94503D0494655
:102FF0002046FEF79BFC39462046FEF797FCAEE6DE
:1030000000263746E1E7BA463746B1E500002440DE
:10301000099BCDF81080002B00F0F380002D05DD1A
:1030200039462A462046FEF70DFE0746089B002B30
:103030004CD079682046FEF745FC05463A6907F111
:103040000C01023292000C3000F00CF901222946EA
:103050002046FEF7F7FDB9460746069B0793029BFD
:1030600003F00103089331465846FFF7A3FA494697
:10307000054600F130085846FEF738FE3A46029001
:1030800031462046FEF74CFEC368024603BB0146AC
:1030900009905846FEF72AFE0346099A1146204633
:1030A0000993FEF743FC099BA3B91E9A92B9089AAB
:1030B00082B9B8F1390F29D0029B002B01DD05F14F
:1030C0003108079B5D1C83F8008084E73846C2E71F
:1030D0000123E3E7029A002A04DB23D11E9A0ABBEC
:1030E000089AFAB9002BECDD594601222046FEF77A
:1030F000A9FD31468346FEF7F9FD002803DCE0D147
:1031000018F0010FDDD0B8F1390FD8D1079B079A1D
:103110005D1C3923137015F8013C6A1E392B4DD004
:10312000013352E0079A002B02F1010506DDB8F1E8
:10313000390FEBD008F10108079BC4E7069B049AFE
:10314000EB1A934205F8018C21D0594600230A223C
:103150002046FEF702FCB94583464FF000034FF0CE
:103160000A024946204605D1FEF7F7FB814607468D
:10317000079578E7FEF7F1FB3946814600230A22DE
:103180002046FEF7EAFB0746F2E74FF000095946F2
:1031900001222046FEF756FD31468346FEF7A6FD86
:1031A0000028B8DC02D118F0010FB4D115F8013CA9
:1031B0006A1E302B7FF40FAF1546F7E7069B93424C
:1031C00005D13123069A0AF1010A137003E7154667
:1031D000A1E7174BFFF7E1BA229B002B7FF4BBAAB4
:1031E000144BFFF7DABA1E9B012B7FF73FAE0C9B07
:1031F000089353E6049B002B03DC1E9B022B3FF736
:10320000D5AE069D31465846FFF7D4F9069B00F12E
:10321000300805F8018B049AEB1A9A42B5DD59463D
:1032200000230A222046FEF798FB8346EAE700BF08
:10323000C4340008B7340008024B01461868FEF792
:1032400047BE00BF2000002010B5C9B20244904222
:10325000034601D1002303E01C7801308C42F6D1F3
:10326000184610BD10B5431E0A44914200D110BD4E
:1032700011F8014B03F8014FF7E7884210B501EB55
:10328000020307D8421E99420AD011F8014B02F8F6
:10329000014FF8E78342F5D98118D21AD34200D101
:1032A00010BD13F8014D01F8014DF7E77047704765
:1032B00038B50546002943D051F8043C0C1F002BBB
:1032C000B8BFE418FFF7F2FF1E4A1368104633B97F
:1032D000636014602846BDE83840FFF7E8BFA342AA
:1032E0000BD921686218934201BF1A685B685218B3
:1032F000226063600460EDE713465A680AB1A24297
:10330000FAD919685818A0420BD1206801445818FE
:1033100082421960DED110685268014419605A6017
:10332000D8E702D90C232B60D4E7206821188A4201
:1033300001BF116852680918216062605C60C9E7CA
:1033400038BD00BFA800002051F8043C181F002B16
:10335000BCBF0B58C0187047F8B500BFF8BC08BC1C
:103360009E467047F8B500BFF8BC08BC9E46704743
:10337000256400006D0000003A6D6F616C73687227
:1033800065696620000000000080E03779C3414392
:10339000176E05B5B5B89346F5F93FE9034F384DBB
:1033A000321D30F94877825A3CBF737FDD4F157567
:1033B000000000000000F03F00000000000024407A
:1033C00000000000000059400000000000408F4055
:1033D000000000000088C34000000000006AF840C0
:1033E0000000000080842E4100000000D0126341E4
:1033F0000000000084D797410000000065CDCD415A
:10340000000000205FA00242000000E8764837423A
:10341000000000A2941A6D42000040E59C30A242D8
:103420000000901EC4BCD64200003426F56B0C434D
:103430000080E03779C3414300A0D88557347643F4
:1034400000C84E676DC1AB43003D9160E458E14355
:10345000408CB5781DAF154450EFE2D6E41A4B44CA
:1034600092D54D06CFF08044F64AE1C7022DB5440F
:10347000B49DD9794378EA440500000019000000A2
:103480007D000000232D302B2000686C4C00656609
:1034900067454647003031323334353637383941A5
:1034A00042434445460030313233343536373839BB
:1034B00061626364656600496E66696E697479006D
:0834C0004E614E0030000000D7
:0434C80055010008A2
:0434CC0031010008C2
:1034D00008000000090000000A0000000B000000C6
:1034E0000C0000000D0000000E0000000F000000A6
:1034F0002400002000000000000000000000000088
:1035000000000000000000000000000000000000BB
:1035100000000000000000000000000000000000AB
:10352000000000000000000000000000000000009B
:10353000000000000000000000000000000000008B
:10354000000000000000000000000000000000007B
:043550000000000077
:0400000508001501D9
:00000001FF
